:020000040800F2
:10000000000002208D2A00082D1000082F10000883
:1000100031100008331000083510000800000000FF
:100020000000000000000000000000003710000881
:1000300039100008000000003B1000083D100008C7
:10004000DD2A0008DD2A0008DD2A0008DD2A000874
:10005000DD2A0008DD2A0008DD2A0008DD2A000864
:10006000DD2A0008DD2A0008DD2A0008DD2A000854
:10007000DD2A0008DD2A0008DD2A0008DD2A000844
:10008000DD2A0008DD2A0008DD2A000845100008E6
:100090005510000865100008DD2A0008DD2A000858
:1000A000DD2A0008DD2A0008DD2A0008DD2A000814
:1000B000DD2A0008DD2A0008DD2A0008DD2A000804
:1000C000DD2A0008DD2A0008DD2A0008DD2A0008F4
:1000D000DD2A0008DD2A0008DD2A0008DD2A0008E4
:1000E000DD2A0008DD2A0008DD2A0008DD2A0008D4
:1000F000DD2A0008DD2A0008DD2A0008DD2A0008C4
:10010000DD2A0008DD2A0008DD2A0008DD2A0008B3
:10011000DD2A0008DD2A0008DD2A0008DD2A0008A3
:10012000DD2A0008DD2A0008DD2A0008DD2A000893
:10013000DD2A00080000000000000000DD2A0008A1
:10014000DD2A0008DD2A0008DD2A0008DD2A000873
:10015000DD2A0008DD2A0008DD2A0008DD2A000863
:10016000DD2A0008DD2A0008DD2A0008DD2A000853
:10017000DD2A0008DD2A0008DD2A00080000000052
:1001800000000000DD2A0008000000000000000060
:10019000DD2A00080000000000000000DD2A000841
:1001A000000000000000000000000000DD2A000840
:1001B000DD2A0008DD2A0008DD2A0008DD2A000803
:0401C000DD2A00082C
:1001D00010B5054C237833B9044B13B10448AFF381
:1001E00000800123237010BDD40100200000000016
:1001F0009456000808B5034B1BB103490348AFF3FD
:10020000008008BD00000000D801002094560008BE
:1002100001F0FF01102A2BDB10F0070F08D010F8B7
:10022000013B013A8B422DD010F0070F42B3F6D1BB
:10023000F0B441EA012141EA014122F007047FF0D4
:1002400000070023F0E80256083C85EA010586EA2B
:10025000010685FA47F5A3FA87F586FA47F6A5FA67
:1002600087F68EB9EED1F0BC01F0FF0102F0070273
:1002700032B110F8013B013A83EA010313B1F8D11E
:100280000020704701387047002D06BF35460338FF
:10029000073815F0010F07D1013015F4807F02BF38
:1002A000013015F4C03F0130F0BC0138704700BF89
:1002B000034613F8012B002AFBD1181A01387047A6
:1002C00081F0004102E000BF83F0004330B54FEA07
:1002D00041044FEA430594EA050F08BF90EA020F74
:1002E0001FBF54EA000C55EA020C7FEA645C7FEA07
:1002F000655C00F0E2804FEA5454D4EB5555B8BF2A
:100300006D420CDD2C4480EA020281EA030382EA9A
:10031000000083EA010180EA020281EA0303362D2C
:1003200088BF30BD11F0004F4FEA01314FF4801CFF
:100330004CEA113102D0404261EB410113F0004F11
:100340004FEA03334CEA133302D0524263EB4303C8
:1003500094EA050F00F0A780A4F10104D5F1200E66
:100360000DDB02FA0EFC22FA05F2801841F10001C1
:1003700003FA0EF2801843FA05F359410EE0A5F195
:1003800020050EF1200E012A03FA0EFC28BF4CF0C6
:10039000020C43FA05F3C01851EBE37101F000457C
:1003A00007D54FF0000EDCF1000C7EEB00006EEB89
:1003B0000101B1F5801F1BD3B1F5001F0CD3490813
:1003C0005FEA30004FEA3C0C04F101044FEA44526A
:1003D00012F5800F80F09A80BCF1004F08BF5FEAF1
:1003E000500C50F1000041EB045141EA050130BDD1
:1003F0005FEA4C0C404141EB0101013C28BFB1F5E3
:10040000801FE9D291F0000F04BF01460020B1FA2D
:1004100081F308BF2033A3F10B03B3F120020CDA00
:100420000C3208DD02F1140CC2F10C0201FA0CF0DE
:1004300021FA02F10CE002F11402D8BFC2F1200C43
:1004400001FA02F120FA0CFCDCBF41EA0C019040F9
:10045000E41AA2BF01EB0451294330BD6FEA040442
:100460001F3C1CDA0C340EDC04F11404C4F120022D
:1004700020FA04F001FA02F340EA030021FA04F33F
:1004800045EA030130BDC4F10C04C4F1200220FA96
:1004900002F001FA04F340EA0300294630BD21FAD4
:1004A00004F0294630BD94F0000F83F4801306BF9A
:1004B00081F480110134013D4EE77FEA645C18BF8E
:1004C0007FEA655C29D094EA050F08BF90EA020F25
:1004D00005D054EA000C04BF1946104630BD91EA1D
:1004E000030F1EBF0021002030BD5FEA545C05D120
:1004F0004000494128BF41F0004130BD14F580045F
:100500003CBF01F5801130BD01F0004545F0FE41D2
:1005100041F470014FF0000030BD7FEA645C1ABF07
:10052000194610467FEA655C1CBF0B46024650EA3E
:10053000013406BF52EA033591EA030F41F400216A
:1005400030BD00BF90F0000F04BF0021704730B5F0
:100550004FF4806404F132044FF000054FF00001C5
:1005600050E700BF90F0000F04BF0021704730B586
:100570004FF4806404F1320410F0004548BF40425B
:100580004FF000013EE700BF42004FEAE2014FEAB0
:1005900031014FEA02701FBF12F07F4393F07F4F8B
:1005A00081F06051704732F07F4208BF704793F08E
:1005B0007F4F04BF41F40021704730B54FF46074A1
:1005C00001F0004521F000411CE700BF50EA0102A4
:1005D00008BF704730B54FF000050AE050EA01024D
:1005E00008BF704730B511F0004502D5404261EBBD
:1005F00041014FF4806404F132045FEA915C3FF4FE
:10060000D8AE4FF003025FEADC0C18BF03325FEA9A
:10061000DC0C18BF033202EBDC02C2F1200300FA4B
:1006200003FC20FA02F001FA03FE40EA0E0021FA70
:1006300002F11444BDE600BF70B54FF0FF0C4CF45E
:10064000E06C1CEA11541DBF1CEA135594EA0C0F10
:1006500095EA0C0F00F0DEF82C4481EA030621EA4B
:100660004C5123EA4C5350EA013518BF52EA033586
:1006700041F4801143F4801338D0A0FB02CE4FF038
:100680000005E1FB02E506F00042E0FB03E54FF068
:100690000006E1FB03569CF0000F18BF4EF0010E60
:1006A000A4F1FF04B6F5007F64F5407404D25FEA5C
:1006B0004E0E6D4146EB060642EAC62141EA55510F
:1006C0004FEAC52040EA5E504FEACE2EB4F1FD0C51
:1006D00088BFBCF5E06F1ED8BEF1004F08BF5FEACF
:1006E000500E50F1000041EB045170BD06F0004681
:1006F00046EA010140EA020081EA0301B4EB5C042E
:10070000C2BFD4EB0C0541EA045170BD41F4801125
:100710004FF0000E013C00F3AB8014F1360FDEBF4A
:10072000002001F0004170BDC4F10004203C35DA26
:100730000C341BDC04F11404C4F1200500FA05F3A9
:1007400020FA04F001FA05F240EA020001F000424A
:1007500021F0004110EBD37021FA04F642EB0601C0
:100760005EEA430E08BF20EAD37070BDC4F10C04EA
:10077000C4F1200500FA04F320FA05F001FA04F2AE
:1007800040EA020001F0004110EBD37041F100019A
:100790005EEA430E08BF20EAD37070BDC4F12005A5
:1007A00000FA05F24EEA020E20FA04F301FA05F20D
:1007B00043EA020321FA04F001F0004121FA04F2B5
:1007C00020EA020000EBD3705EEA430E08BF20EA85
:1007D000D37070BD94F0000F0FD101F000464000BF
:1007E00041EB010111F4801F08BF013CF7D041EA41
:1007F000060195F0000F18BF704703F00046520045
:1008000043EB030313F4801F08BF013DF7D043EA15
:100810000603704794EA0C0F0CEA135518BF95EACB
:100820000C0F0CD050EA410618BF52EA4306D1D152
:1008300081EA030101F000414FF0000070BD50EA71
:10084000410606BF1046194652EA430619D094EAFB
:100850000C0F02D150EA013613D195EA0C0F05D1E5
:1008600052EA03361CBF104619460AD181EA030139
:1008700001F0004141F0FE4141F470014FF00000F1
:1008800070BD41F0FE4141F4780170BD70B54FF08C
:10089000FF0C4CF4E06C1CEA11541DBF1CEA13550C
:1008A00094EA0C0F95EA0C0F00F0A7F8A4EB0504EE
:1008B00081EA030E52EA03354FEA013100F08880E5
:1008C0004FEA03334FF0805545EA131343EA1263AE
:1008D0004FEA022245EA111545EA10654FEA002663
:1008E0000EF000419D4208BF964244F1FD0404F51C
:1008F000407402D25B084FEA3202B61A65EB030578
:100900005B084FEA32024FF480104FF4002CB6EB34
:10091000020E75EB030E22BFB61A754640EA0C00B4
:100920005B084FEA3202B6EB020E75EB030E22BFF4
:10093000B61A754640EA5C005B084FEA3202B6EB35
:10094000020E75EB030E22BFB61A754640EA9C00F4
:100950005B084FEA3202B6EB020E75EB030E22BFC4
:10096000B61A754640EADC0055EA060E18D04FEA82
:10097000051545EA16754FEA06164FEAC30343EA22
:1009800052734FEAC2025FEA1C1CC0D111F4801FEF
:100990000BD141EA00014FF000004FF0004CB6E7E8
:1009A00011F4801F04BF01430020B4F1FD0C88BF87
:1009B000BCF5E06F3FF6AFAEB5EB030C04BFB6EB92
:1009C000020C5FEA500C50F1000041EB045170BD85
:1009D0000EF0004E4EEA113114EB5C04C2BFD4EBB2
:1009E0000C0541EA045170BD41F480114FF0000E36
:1009F000013C90E645EA060E8DE60CEA135594EAB2
:100A00000C0F08BF95EA0C0F3FF43BAF94EA0C0FB4
:100A10000AD150EA01347FF434AF95EA0C0F7FF429
:100A200025AF104619462CE795EA0C0F06D152EA7D
:100A300003353FF4FDAE1046194622E750EA410661
:100A400018BF52EA43067FF4C5AE50EA41047FF472
:100A50000DAF52EA43057FF4EBAE12E74FF0FF3CD7
:100A600006E000BF4FF0010C02E000BF4FF0010CA8
:100A70004DF804CD4FEA410C7FEA6C5C4FEA430C21
:100A800018BF7FEA6C5C1BD001B050EA410C0CBF70
:100A900052EA430C91EA030F02BF90EA020F0020D2
:100AA000704710F1000F91EA030F58BF994208BF39
:100AB00090422CBFD8176FEAE37040F001007047F6
:100AC0004FEA410C7FEA6C5C02D150EA013C07D14D
:100AD0004FEA430C7FEA6C5CD6D152EA033CD3D098
:100AE0005DF8040B704700BF8446104662468C4692
:100AF0001946634600E000BF01B5FFF7B7FF0028C5
:100B000048BF10F1000F01BD4DF808EDFFF7F4FFED
:100B10000CBF012000205DF808FB00BF4DF808ED78
:100B2000FFF7EAFF34BF012000205DF808FB00BF9B
:100B30004DF808EDFFF7E0FF94BF012000205DF8BD
:100B400008FB00BF4DF808EDFFF7CEFF94BF012072
:100B500000205DF808FB00BF4DF808EDFFF7C4FF6B
:100B600034BF012000205DF808FB00BF4FEA410CB4
:100B70007FEA6C5C02D150EA013C0AD14FEA430C97
:100B80007FEA6C5C02D152EA033C02D14FF00000D4
:100B900070474FF0010070474FEA410212F5001212
:100BA00015D211D56FF47873B3EB625212D94FEAB4
:100BB000C12343F0004343EA505311F0004F23FA9E
:100BC00002F018BF404270474FF00000704750EAF3
:100BD000013005D111F0004008BF6FF000407047B0
:100BE0004FF00000704700BF4A0011D212F500120A
:100BF00011D20DD56FF47873B3EB62520ED44FEA75
:100C0000C12343F0004343EA505323FA02F07047F4
:100C10004FF00000704750EA013002D14FF0FF3032
:100C200070474FF00000704753B94AB9002908BF18
:100C300000281CBF4FF0FF314FF0FF3000F070B9BB
:100C4000ADF1080C6DE904CE00F006F8DDF804E023
:100C5000DDE9022304B070472DE9F047089E0D46F8
:100C600004460F46002B4AD18A42944665D9B2FA0F
:100C700082F343B102FA03FCC3F120029F4020FA41
:100C800002F217439C404FEA1C4E1FFA8CF5B7FB4B
:100C9000FEF1220C0EFB117742EA074201FB05F040
:100CA00090420AD91CEB020201F1FF3780F01C814F
:100CB000904240F2198102396244121AA4B2B2FB86
:100CC000FEF00EFB102244EA024400FB05F5A542AB
:100CD0000AD91CEB040400F1FF3280F00781A54221
:100CE00040F204816444023840EA0140641B002160
:100CF0001EB1DC400023C6E90043BDE8F0878B420B
:100D000008D9002E00F0ED800021C6E90005084654
:100D1000BDE8F087B3FA83F1002949D1AB4202D391
:100D2000824200F2F880841A65EB03020120174624
:100D3000002EE2D0C6E90047DFE702B9FFDEB2FAD3
:100D400082F3002B40F090808A1A4FEA1C471FFA6A
:100D50008CFE0121B2FBF7F507FB1520220C42EABD
:100D600000420EFB05F0904208D91CEB020205F18F
:100D7000FF3802D2904200F2CB804546121AA4B24C
:100D8000B2FBF7F007FB102244EA02440EFB00FE20
:100D9000A64508D91CEB040400F1FF3202D2A64597
:100DA00000F2BB801046A4EB0E0440EA05409FE72A
:100DB000C1F120078B4022FA07FC4CEA030C05FA2C
:100DC00001F420FA07F3FD404FEA1C492343B5FB29
:100DD000F9F81FFA8CFE09FB18551C0C44EA05446F
:100DE00008FB0EF5A54202FA01F200FA01F00BD958
:100DF0001CEB040408F1FF3A80F08880A54240F221
:100E00008580A8F102086444641B9DB2B4FBF9F329
:100E100009FB134445EA044403FB0EFEA64508D92A
:100E20001CEB040403F1FF356CD2A6456AD9023BE2
:100E3000644443EA0843A3FB0295A4EB0E04AC42CE
:100E4000C846AE4656D353D056B1B0EB080264EB59
:100E50000E0404FA07F7CA40CC401743C6E90074F1
:100E600018460021BDE8F087C3F1200102FA03FC17
:100E700020FA01F225FA01F19D402A434FEA1C476E
:100E80001FFA8CFEB1FBF7F007FB1015110C41EABD
:100E9000054100FB0EF58D4204FA03F408D91CEB62
:100EA000010100F1FF382FD28D422DD90238614463
:100EB000491B92B2B1FBF7F507FB151142EA01425B
:100EC00005FB0EF1914208D91CEB020205F1FF3837
:100ED00016D2914214D9023D6244521A45EA0041A9
:100EE00038E73146304608E73946E6E61046FBE685
:100EF0004845A9D2B9EB020865EB0C0E013BA3E70C
:100F00004546EAE72B4694E74046D1E7D0467BE7E3
:100F1000023D624432E708460AE76444023842E789
:100F2000704700BF10B514460A2392B2024801F080
:100F30001EFB204610BD00BF6402002072B6FEE713
:100F400000B595B03422002107A802F0DBFC002395
:100F50000293039304930593069300931F4A116C25
:100F600041F080511164126C02F080520092009A9C
:100F700001931B490A6822F4404242F480420A600D
:100F80000A6802F440420192019A0222079201216A
:100F90000A9110210B910D920E930F914FF4A873AB
:100FA0001093042311931292139207A800F010FEDD
:100FB00080B90F23029302210391002304934FF47D
:100FC00080520592069302A800F064FC20B915B087
:100FD0005DF804FBFFF7B2FFFFF7B0FF00380240F7
:100FE0000070004008B501F09DF9FFF7A9FF01F07E
:100FF00035FB01F045FC01F0CBFC094B1B680021DF
:10100000986802F0F1FA074802F0E6FA01F0A4FB52
:101010009FED050A5C21022001F0C2FBF8E700BF4A
:1010200064000020B056000800000000FEE7FEE764
:10103000FEE7FEE7FEE770477047704708B501F02E
:101040008BF908BD08B5024800F0FEFA08BD00BFE4
:101050003C02002008B5024800F0F6FA08BD00BFC7
:101060003C02002008B5024800F0EEFA08BD00BFBF
:101070003C02002000B583B0002100910C4B5A6C5B
:1010800042F480425A645A6C02F480420092009A00
:1010900001911A6C42F080521A641B6C03F0805369
:1010A0000193019B072001F0ABF803B05DF804FB4E
:1010B00000380240002800F0A18038B5044690F8BE
:1010C0002030D3B12268136843F00103136001F0AC
:1010D0004FF9054623685A6812F0010F10D101F04C
:1010E00047F9401B0A28F5D9636A43F40033636269
:1010F000052384F82030012038BD01F0F9FBE1E739
:101100001A6822F002021A6001F032F905462368DB
:101110005A6812F0020F0DD001F02AF9401B0A287C
:10112000F5D9636A43F400336362052384F8203001
:101130000120E1E7227E012A3DD01A6822F08002D8
:101140001A60637E012B3BD02268136823F04003B2
:101150001360A37E012B39D02268136823F020038B
:101160001360E37E012B37D02268136843F010032D
:101170001360237F012B35D02268136823F0080306
:101180001360637F012B33D02268136823F00403BC
:101190001360A368E268134322691343626913432F
:1011A0006268013A21681343CB6100206062012329
:1011B00084F82030A0E71A6842F080021A60C0E785
:1011C0002268136843F040031360C2E72268136883
:1011D00043F020031360C4E72268136823F0100370
:1011E0001360C6E72268136843F008031360C8E77A
:1011F0002268136843F004031360CAE701207047B4
:1012000090F82030013BDBB2012B05D9436A43F44F
:10121000802343620120704730B5464BD3F800224B
:1012200042F00102C3F80022D3F8002222F47C52DB
:10123000C3F80022D3F80022486A42EA0022C3F829
:1012400000224A6902F01F02012000FA02F2D3F8DC
:101250001C026FEA020C20EA0200C3F81C02CB69F0
:10126000C3B9344BD3F80C020CEA0000C3F80C02EB
:101270008C884869CD6844EA0544483043F83040DA
:101280008C68088840EA04404C6904F1480E03EB7E
:10129000CE035860CB69012B1ED08B69002B33D154
:1012A0002448D0F804320CEA0303C0F804320B6976
:1012B0008BBB2048D0F814320CEA0303C0F8143278
:1012C0000B6A012B2ED01B4AD2F8003223F0010307
:1012D000C2F80032002030BD164BD3F80C02104388
:1012E000C3F80C028C8848690D6844EA054448300C
:1012F00043F8304088894C698D6840EA054048349D
:1013000003EBC4035860C8E70A48D0F8043213431B
:10131000C0F80432CBE70748D0F814321343C0F8C2
:101320001432CDE70349D1F81C321343C1F81C3203
:10133000C9E700BF0064004070B5044690F8205033
:10134000EDB2012D06D0436A43F400234362012528
:10135000284670BD022380F820300268136823F00D
:101360000103136001F004F8064623685B6813F07C
:10137000010F0CD000F0FCFF831B0A2BF5D9636A28
:1013800043F400336362052384F82030E0E700254E
:101390006562DDE730B590F820C00468A4680CF100
:1013A000FF3C5FFA8CFCBCF1010F6BD814F0E05FDE
:1013B00062D0C4F3016CBCF1020F05D9436A43F457
:1013C00000034362012062E0012404FA0CF41C6073
:1013D0008B68002B3DD10D68CB68046843EA455506
:1013E0000CF118031B01E55003680C690CF1180E91
:1013F00003EB0E135C600B7D012B35D0D179937913
:101400001B0443EA0163517943EA0123147901681B
:10141000234301EB0C11C1F88C31D17893781B0474
:1014200043EA0163517843EA0123117802680B43D0
:1014300002EB0C12C2F8883102680CF1180C4FEA6A
:101440000C1C52F80C3043F0010342F80C30002021
:101450001DE04C6843EAC403CC6823430CF1180434
:10146000240105682B51BFE7036803EB0E1359688D
:1014700041F480715960C1E7436A43F40013436249
:10148000012004E0436A43F480234362012030BD1D
:1014900090F82030013BDBB2012B01D900207047CE
:1014A0000368986810F0806000D001209A6812F0FC
:1014B000006F00D001309B6813F0805FEFD00130E7
:1014C000704790F820C00CF1FF3C5FFA8CFCBCF137
:1014D000010F00F2958030B451B90468E46814F04B
:1014E000030F10D1436A43F400134362012077E0F5
:1014F0000468246914F0030F05D1436A43F4001310
:10150000436201206CE001F11B04240105682C59A1
:1015100004F004049460002C64D101F11B04240144
:1015200005682C59640D1460046801F11B0C4FEA26
:101530000C1C54F80C4004F00204D46004686444A9
:10154000646804F00F041461046864446468C4F3BC
:1015500007249461046864446468240C546102683C
:1015600002EB0112D2F8B8211A70026802EB0112E4
:10157000D2F8B821C2F307225A70026802EB0112B6
:10158000D2F8B821C2F307429A70026802EB011246
:10159000D2F8B821120EDA70026802EB0112D2F80A
:1015A000BC211A71026802EB0112D2F8BC21C2F30D
:1015B00007225A71026802EB0112D2F8BC21C2F371
:1015C00007429A71026802EB0112D2F8BC21120E96
:1015D000DA7179B90268D36843F02003D360002040
:1015E00030BC704701F11B04240105682C59E40844
:1015F000546099E70268136943F020031361EEE732
:10160000436A43F4802343620120704790F82030FE
:10161000013BDBB2012B05D9436A43F480234362CB
:1016200001207047026853690B43536100207047E3
:1016300070477047704770477047704770477047F2
:1016400070477047704770472DE9F84F05460368AB
:101650005C69D3F804809F68D3F80CB0D3F810A06D
:10166000D3F8189014F001063BD017F0010616D0FD
:1016700001229A6017F0020F08D117F0040F0CD165
:1016800017F0080606D04FF4805608E0FFF7D0FFA9
:10169000002604E0FFF7CFFF01E04FF4006617F4E7
:1016A000807F0DD02B684FF480729A6017F4007F12
:1016B00040F0868017F4806F00F0868046F4005674
:1016C00017F4803F0DD02B684FF480329A6017F4E6
:1016D000003F40F0838017F4802F00F0838046F4B1
:1016E000004614F0080F07D01BF0100F04D046F48A
:1016F00000762B681022DA6014F0040F02D01BF081
:10170000080F79D114F0020F04D02B68DB6813F0B6
:10171000030F78D114F0400F07D01AF0100F04D047
:1017200046F480662B6810221A6114F0200F02D054
:101730001AF0080F6BD114F0100F04D02B681B693E
:1017400013F0030F6AD114F4003F02D018F0100F09
:1017500068D114F4803F02D018F0080F69D114F456
:10176000004F7AD018F0040F74D014F4807F04D0A6
:1017700019F0010F01D046F0010614F4007F04D0E7
:1017800019F0020F01D046F0020614F4806F04D065
:1017900019F0040F01D046F0040614F4006F59D07C
:1017A00019F0700956D0B9F1400F65D058D8B9F189
:1017B000200F5ED0B9F1300F42D146F0200644E050
:1017C0002846FFF736FF7BE717F4006F02D046F498
:1017D000804675E72846FFF72FFF71E72846FFF799
:1017E00029FF7EE717F4002F02D046F4803678E711
:1017F0002846FFF722FF74E72B680822DA602846A4
:10180000FFF71CFF7EE7284600F07CFF82E72B688D
:1018100008221A612846FFF713FF8CE72846FFF7D6
:101820000EFF90E72B6810225A602846FFF709FF49
:101830008FE72B6808225A602846FFF703FF8EE7E0
:10184000B9F1100F01D146F008062A68936923F018
:10185000700393612B6804225A609EB9BDE8F88F2B
:10186000B9F1500F0BD0B9F1600FEED146F480768C
:10187000EBE746F01006E8E746F04006E5E746F0FD
:101880008006E2E76B6A33436B622846FFF7DBFEB4
:10189000E4E70000002800F09B8070B50D46044688
:1018A0004F4B1B6803F00F038B4208D2CBB24C4A5C
:1018B0001370136803F00F038B4240F08B80236892
:1018C00013F0020F17D013F0040F04D0454A9368A9
:1018D00043F4E0539360236813F0080F04D0414AA7
:1018E000936843F4604393603E4A936823F0F003A7
:1018F000A1680B439360236813F0010F32D0636833
:10190000012B21D09A1E012A25D9364A126812F0DD
:10191000020F61D033498A6822F0030213438B60BF
:1019200000F026FD06462F4B9B6803F00C0362680F
:10193000B3EB820F16D000F01BFD801B41F2883301
:101940009842F0D9032042E0264A126812F4003F80
:10195000E0D101203BE0234A126812F0007FD9D188
:10196000012034E01E4B1B6803F00F03AB4207D984
:10197000EAB21B4B1A701B6803F00F03AB422DD168
:10198000236813F0040F06D0164A936823F4E0533B
:10199000E1680B439360236813F0080F07D0114AE6
:1019A000936823F46043216943EAC103936000F024
:1019B00047F80C4B9B68C3F303130B4AD35CD84026
:1019C0000A4B18600A4B186800F086FC002070BDB6
:1019D000012070470120FAE70120F8E70120F6E72F
:1019E000003C024000380240BC56000808000020BD
:1019F00004000020014B1868704700BF0800002059
:101A000008B5FFF7F7FF044B9B68C3F38223034A33
:101A1000D35CD84008BD00BF00380240CC56000857
:101A200008B5FFF7E7FF044B9B68C3F34233034A53
:101A3000D35CD84008BD00BF00380240CC56000837
:101A400008B5604B9B6803F00C03082B07D00C2BE8
:101A50005FD0042B01D05C4808BD5C48FCE7594BC3
:101A60005A6802F03F025B6813F4800F2CD0554B8C
:101A70005868C0F388104FEA401CBCEB000C6EEBBA
:101A80000E0E4FEA8E1343EA9C634FEA8C11B1EBC2
:101A90000C0163EB0E03DB0043EA5173C90011EB49
:101AA000000C43F10003590200234FEA4C2041EAA5
:101AB000DC51FFF7B9F8434B5B68C3F301430133D3
:101AC0005B00B0FBF3F0C7E73E4B5868C0F38810EB
:101AD0004FEA401CBCEB000C6EEB0E0E4FEA8E136F
:101AE00043EA9C634FEA8C11B1EB0C0163EB0E03EC
:101AF000DB0043EA5173C90011EB000C43F1000312
:101B0000990200234FEA8C2041EA9C51FFF78CF8A0
:101B1000D1E72C4B5A6802F03F025B6813F4800F48
:101B20002AD0284B5868C0F388104FEA401CBCEB01
:101B3000000C6EEB0E0E4FEA8E1343EA9C634FEAE5
:101B40008C11B1EB0C0163EB0E03DB0043EA517324
:101B5000C90011EB000C43F10003590200234FEAC6
:101B60004C2041EADC51FFF75FF8164B5B68C3F38A
:101B70000273B0FBF3F06FE7124B5868C0F38810A4
:101B80004FEA401CBCEB000C6EEB0E0E4FEA8E13BE
:101B900043EA9C634FEA8C11B1EB0C0163EB0E033B
:101BA000DB0043EA5173C90011EB000C43F1000361
:101BB000990200234FEA8C2041EA9C51FFF734F848
:101BC000D3E700BF003802400024F40000127A007E
:101BD000002800F0018270B582B00446036813F05B
:101BE000010F41D0994B9B6803F00C03042B32D0BA
:101BF000964B9B6803F00C03082B27D0934B9B68F4
:101C000003F00C030C2B59D06368B3F5803F5BD015
:101C1000B3F5A02F5ED08D4B1A6822F480321A6083
:101C20001A6822F480221A606368002B5CD000F0EE
:101C30009FFB0546854B1B6813F4003F14D100F051
:101C400097FB401B6428F5D90320CCE17F4B5B68F0
:101C500013F4800FD2D07D4B1B6813F4003F03D0E8
:101C60006368002B00F0BA81236813F0020F60D084
:101C7000764B9B6813F00C0F4AD0744B9B6803F0B3
:101C80000C03082B3FD0714B9B6803F00C030C2B0B
:101C900069D0E368002B75D06D4B01221A6000F00B
:101CA00067FB0546694B1B6813F0020F61D100F01A
:101CB0005FFB401B0228F5D9032094E1634B5B686E
:101CC00013F4800FA0D0C6E7604A136843F4803352
:101CD0001360A9E75D4B1A6842F480221A601A6803
:101CE00042F480321A609FE700F042FB0546574BF2
:101CF0001B6813F4003FB7D000F03AFB401B642888
:101D0000F5D903206FE1514B5B6813F4800FBAD112
:101D10004E4B1B6813F0020F03D0E368012B40F019
:101D20005F814A4A136823F0F803216943EAC1033B
:101D30001360236813F0080F49D06369002B33D078
:101D4000434B0122C3F8802E00F012FB05463F4BA7
:101D50005B6F13F0020F3AD100F00AFB401B022820
:101D6000F5D903203FE1394B5B6813F4800F90D124
:101D7000CEE7364A136823F0F803216943EAC1032A
:101D80001360D6E7324B00221A6000F0F1FA0546E4
:101D90002E4B1B6813F0020FCBD000F0E9FA401B6A
:101DA0000228F5D903201EE1294B0022C3F8802E1A
:101DB00000F0DEFA0546254B5B6F13F0020F06D0EC
:101DC00000F0D6FA401B0228F5D903200BE1236866
:101DD00013F0040F76D01D4B1B6C13F0805F33D1D2
:101DE00000230193194B1A6C42F080521A641B6C49
:101DF00003F080530193019B0125164B1B6813F4DC
:101E0000807F29D0A368012B3AD0052B3ED00F4B01
:101E10001A6F22F001021A671A6F22F004021A6781
:101E2000A368002B3CD000F0A3FA0646074B1B6FBB
:101E300013F0020F45D100F09BFA801B41F288336A
:101E40009842F3D90320CEE00025D6E700380240BF
:101E500000004742007000406B4A136843F48073EF
:101E6000136000F085FA0646674B1B6813F4807F09
:101E7000C8D100F07DFA801B0228F5D90320B2E01A
:101E8000624A136F43F001031367C9E75F4B1A6F90
:101E900042F004021A671A6F42F001021A67BFE7A4
:101EA00000F066FA0646594B1B6F13F0020F08D07C
:101EB00000F05EFA801B41F288339842F3D9032088
:101EC00091E0EDB9A369002B00F08C804F4A926835
:101ED00002F00C02082A54D0022B17D04C4B0022DF
:101EE0001A6600F045FA0446484B1B6813F0007F61
:101EF00045D000F03DFA001B0228F5D9032072E01E
:101F0000424A136C23F080531364DBE7404B0022FA
:101F10001A6600F02DFA05463C4B1B6813F0007F53
:101F200006D000F025FA401B0228F5D903205AE01C
:101F3000E369226A1343626A43EA8213A26A52087F
:101F4000013A43EA0243E26A43EA0263226B43EA4C
:101F500002732E4A53602E4B01221A6600F008FAD3
:101F600004462A4B1B6813F0007F06D100F000FAEC
:101F7000001B0228F5D9032035E0002033E00020C3
:101F800031E0012B31D0214B5B6803F48001E26921
:101F900091422CD103F03F02216A8A4229D1616A21
:101FA00047F6C0721A40B2EB811F24D103F44031CE
:101FB000A26A5208013AB1EB024F1ED103F07062DF
:101FC000E16AB2EB016F1AD103F0E043226BB3EB8D
:101FD000027F16D1002006E001207047012002E0B8
:101FE000012000E0002002B070BD0120FBE70120CD
:101FF000F9E70120F7E70120F5E70120F3E70120E9
:10200000F1E70120EFE700BF007000400038024018
:102010000000474200230F2B00F2E38070B582B02E
:1020200065E085684FEA430E032404FA0EF425EABE
:102030000405CC6804FA0EF42C438460446824EA56
:1020400002044A68C2F300129A40224342605CE0F4
:10205000DC08083450F8242003F00705AD004FF0E9
:102060000F0E0EFA05FE22EA0E0E0A69AA4042EA97
:102070000E0240F824205CE0062200E0002202FA72
:102080000EF22A430234574D45F82420564A9468EC
:102090006FEA0C0224EA0C054E6816F4801F01D08A
:1020A0004CEA0405504CA560E46802EA04054E6859
:1020B00016F4001F01D04CEA04054B4CE56064683F
:1020C00002EA04054E6816F4003F01D04CEA04050C
:1020D000454C6560246822404D6815F4803F01D06E
:1020E0004CEA0402404C226001330F2B77D80122C6
:1020F0009A400C6804EA020C32EA0404F4D14C68F9
:1021000004F00304013C012C8BD94A6802F003025D
:10211000032A09D0C4685D000322AA4024EA02040D
:102120008A68AA402243C2604A6802F00302022A77
:102130008ED004684FEA430E032202FA0EF224EA1C
:1021400002044A6802F0030202FA0EF2224302601D
:102150004A6812F4403FC7D000220192234A546CCF
:1021600044F480445464526C02F480420192019A17
:102170009C08A51C1B4A52F8255003F0030E4FEA99
:102180008E0E0F2202FA0EF225EA0205184A90423C
:102190003FF474AF02F58062904216D002F580627F
:1021A000904214D002F58062904212D002F5806213
:1021B000904210D002F5806290420ED002F580620B
:1021C00090423FF459AF072259E7012257E7022214
:1021D00055E7032253E7042251E705224FE702B0F7
:1021E00070BD704700380140003C0140003802409B
:1021F000000002400AB181617047090481617047A3
:10220000074AD36823F4E0631B041B0C000200F4AC
:10221000E060034343F0BF6343F40033D36070478F
:1022200000ED00E000B5194BDB68C3F30223C3F1F6
:10223000070CBCF1040F28BF4FF0040C03F1040E8F
:10224000BEF1060F18D9033B4FF0FF3E0EFA0CFC0F
:1022500021EA0C0199400EFA03FE22EA0E020A431B
:1022600000280BDB1201D2B200F1604000F56140A2
:1022700080F800235DF804FB0023E5E700F00F0081
:102280001201D2B2024B1A54F4E700BF00ED00E095
:1022900014ED00E0002807DB00F01F0240090123D5
:1022A0009340024A42F82030704700BF00E100E04E
:1022B0000138B0F1807F0BD24FF0E0235861054A1E
:1022C000F02182F823100020986107221A617047DC
:1022D0000120704700ED00E010B504460E4B1A785F
:1022E0004FF47A73B3FBF2F30C4A1068B0FBF3F0CF
:1022F000FFF7DEFF68B90F2C01D901200AE00022A8
:1023000021464FF0FF30FFF78DFF054B1C6000208A
:1023100000E0012010BD00BF0000002008000020E8
:102320000400002008B50B4B1A6842F400721A60D2
:102330001A6842F480621A601A6842F480721A6065
:102340000320FFF75DFF0020FFF7C6FFFEF792FEB8
:10235000002008BD003C0240034A1168034B1B7873
:102360000B441360704700BFF00100200000002004
:10237000014B1868704700BFF001002010B50446FB
:102380000268136923F44053C1680B4313618368E7
:1023900002691A4343691A43C3691A430168CB6847
:1023A00023F4164323F00C031343CB6002685369F4
:1023B00023F4407381690B4353610368314A9342AC
:1023C00006D002F58062934202D0FFF719FB01E0CC
:1023D000FFF726FBE369B3F5004F29D0002103186E
:1023E00049411B1841F10001C90041EA5371DB006A
:1023F000181863684FEA83024FEA937341F10001B2
:10240000FEF712FC204AA2FB00314909642303FBBA
:1024100011031B013233A2FB03235B0903F0F0021B
:1024200002EB011203F00F03216813448B6010BD0F
:102430000023021843EB0301121841F10001C90007
:1024400041EA5271D200101841F1000162689218FD
:102450005B41FEF7E9FB0C4AA2FB0031490964230A
:1024600003FB1103DB003233A2FB03235B095A0099
:1024700002F4F87202EB011203F00703216813441F
:102480008B60D4E7001001401F85EB512DE9F84324
:1024900005460F4616469946DDF820802B681C68D5
:1024A00037EA04040CBF01240024B4422DD1B8F152
:1024B000FF3FF3D0B8F1000F05D0FFF759FFA0EBB5
:1024C00009004045EAD92A6802F10C0353E8003FAD
:1024D00023F4D0730C3242E800310029F3D12A688A
:1024E00002F1140353E8003F23F00103143242E8E1
:1024F00000310029F3D1202385F83D3085F83E30A6
:10250000002385F83C30032000E00020BDE8F8837C
:1025100058B310B5044690F83D300BB3242384F82B
:102520003D302268D36823F40053D3602046FFF780
:1025300025FF2268136923F49043136122685369CD
:1025400023F02A0353612268D36843F40053D36015
:1025500000202064202384F83D3084F83E3010BDF4
:1025600080F83C3000F02EFAD8E7012070472DE9C2
:10257000F04182B01E4690F83D30DBB2202B54D1A2
:1025800004460D469046002953D0002A53D090F8B7
:102590003C30012B51D0012380F83C3000230364F0
:1025A000212380F83D30FFF7E3FE0746A4F824809E
:1025B000A4F82680A368B3F5805F05D04FF000082B
:1025C000002384F83C3012E0236913B14FF0000877
:1025D000F6E7A8460025F3E738F8023B2268C3F384
:1025E00008035360E28C92B2013A92B2E284E38C27
:1025F0009BB273B100963B46002280212046FFF734
:1026000045FFE0B9002DE7D015F8012B23685A608B
:10261000E8E700963B46002240212046FFF736FFC0
:1026200078B9202384F83D3000E0022002B0BDE8F4
:10263000F0810120FAE70120F8E70220F6E7032005
:10264000F4E70320F2E70000034AD2F8883043F4AD
:102650007003C2F88830704700ED00E030B58BB0F1
:102660000024059406940794089409940194224B3D
:102670001A6B42F004021A631A6B02F00402019210
:10268000019A02941A6B42F080021A631A6B02F0EC
:1026900080020292029A03941A6B42F001021A63BA
:1026A0001A6B02F001020392039A04941A6B42F02F
:1026B00002021A631B6B03F002030493049B0F4D89
:1026C000224620212846FFF795FD4FF4005305933D
:1026D0004FF404130693079405A90948FFF79AFCE1
:1026E00020230593012306930794089405A92846FF
:1026F000FFF790FC0BB030BD0038024000000240F4
:102700000008024070B586B00F4B104A00211048F7
:10271000FEF7D7FEA8B90C4A9378D178107954798E
:102720009579D679059604950394029001910093CA
:102730005378127805490968064800F0E7FE06B0AC
:1027400070BDFEF7FBFBE6E7F4010020FC01002072
:102750003C020020D456000808B502210C48FEF7C0
:1027600055FF50B90B4800F037FF0948FEF7E4FD6C
:1027700030B9094800F0CAFE08BDFEF7DFFBF1E7FB
:10278000034B596A054800F0C1FEFEF7D7FBF0E79E
:102790003C02002028570008485700083857000816
:1027A00010B50C4668BB10EE100AFDF7EDFE32A323
:1027B000D3E90023FDF740FFFEF716FA284B5C60D3
:1027C000274B0022DA600421996019611A75020E04
:1027D000244B1A70020C5A70020A9A70D870224860
:1027E000FEF756FE0028FAD0204B1E4A1C491E4810
:1027F000FEF7D0FD18BB02211B48FEF707FF30BBD8
:1028000010BD012803D0022810D00020D8E710EE18
:10281000100AFDF7B9FE0022154BFDF70DFFFEF77C
:10282000E3F944F480740E4B5C60C9E7FCEEC07AB7
:1028300017EE900A41F44074094B5C60C0E70A4B04
:10284000596A0C4800F062FEFEF778FBD3E7064BAE
:10285000596A084800F05AFEFEF770FBD0E700BF47
:1028600020020020180200203C0200203802002034
:1028700000408F405857000800000000006AF840F0
:1028800000B58BB01848194B036004234360002344
:102890008360C3604FF4702202614FF440124261C2
:1028A000037643768376C37603774377FEF702FC9D
:1028B000A0B9002305930693012207920093019388
:1028C00002930393049308920E23099369460648E2
:1028D000FEF796FC28B90BB05DF804FBFEF72EFB63
:1028E000E7E7FEF72BFBF6E73C0200200064004020
:1028F00010B588B0002303930493059306930793C0
:102900000268214B9A4201D008B010BD0024019406
:1029100003F5EA331A6C42F000721A641A6C02F082
:1029200000720192019A02941A6B42F001021A633A
:102930001B6B03F001030293029B4FF4C0530393FC
:1029400002230493032306930923079303A90F4843
:10295000FFF760FB224621461320FFF763FC13209C
:10296000FFF798FC224621461420FFF75BFC142059
:10297000FFF790FC224621461520FFF753FC152057
:10298000FFF788FCC0E700BF006400400000024081
:1029900008B50A480A4B03604FF4E1334360002353
:1029A0008360C36003610C2242618361C361FFF7EE
:1029B000AFFD00B908BDFEF7C1FAFBE764020020D5
:1029C0000044004000B589B00023039304930593AD
:1029D000069307930268154B9A4202D009B05DF83E
:1029E00004FB0021019103F5FA331A6C42F4003222
:1029F0001A641A6C02F400320192019A02911A6B65
:102A000042F001021A631B6B03F001030293029B65
:102A10000C230393022304930323069307230793B2
:102A200003A90348FFF7F6FAD8E700BF00440040C7
:102A3000000002400120704708B500F0B5FF1623E2
:102A400003604FF0FF3008BD08B54FF0FF31FFF7CE
:102A5000F3FFFEE770B50C461646002506E0AFF31F
:102A60000080214601F8010B01350C46B542F6DB2A
:102A7000304670BD4FF0FF3070474FF400534B604D
:102A8000002070470120704700207047DFF834D0E5
:102A90000D480E490E4A002302E0D458C4500433B6
:102AA000C4188C42F9D30B4A0B4C002301E013608D
:102AB0000432A242FBD3FFF7C7FD00F07BFFFEF715
:102AC00091FA70470000022000000020D40100208D
:102AD000EC5A0008D4010020F8030020FEE72DE99D
:102AE000FF4755EC104B002D0E4619462B46BBBF39
:102AF00005F100431D4600232D230B700D9BDDF8CF
:102B000030A0914623F02008BCBF22461446B8F1FD
:102B1000460F05D0B8F1450F00D10136022100E083
:102B2000032103AB019302AB009345EC104B5346DA
:102B3000324600F0EDFFB8F1470F074602D119F019
:102B4000010F22D0B8F1460F07EB060910D13B78F0
:102B5000302B0AD10022002320462946FDF7D4FF5E
:102B600018B9C6F10106CAF80060DAF800309944D5
:102B70000022002320462946FDF7C6FF08B1CDF804
:102B80000C903022039B4B4507D3039B0E9ADB1B13
:102B90003846136004B0BDE8F087591C03911A70E1
:102BA000F0E7F7B503460029B8BF494203F8022B06
:102BB000B4BF2D222B22092942702ADD0DF1070214
:102BC00017460A26944691FBF6F506FB1514303499
:102BD0000CF8014C0C46632C02F1FF322946F1DC63
:102BE0003031ACF1020402F8011C411C2246BA4209
:102BF0000AD30DF10902A2EB0C02BC4288BF0022ED
:102C00001344181A03B0F0BD12F8015B01F8015F1C
:102C1000EDE7302330318370C170031DF1E7000010
:102C20002DE9F04F2DED028B8DB00C46DDF8608064
:102C300016461F46054600F06DFED0F800A050462F
:102C4000FDF736FB00230A9323680593D8F800307C
:102C500094F818B0073323F0070303F10802C8F80B
:102C60000020D3E9008929F000430793CDF81880AC
:102C700008EE100AC4E91289DDE906019E4B4FF007
:102C8000FF32FDF773FF88BBDDE906019A4B4FF079
:102C9000FF32FDF74DFF48BB002200234046494666
:102CA000FDF73CFF10B12D2384F84330934A944B39
:102CB000BBF1470F94BF9046984603232361059BC1
:102CC00023F0040323604FF00009009733460BAA5A
:102CD0002146284600F0DAF9013040F090804FF0AC
:102CE000FF300DB0BDEC028BBDE8F08F42464B4685
:102CF00040464946FDF73AFF40B14B46002BBCBF6A
:102D00002D2384F843307F4A7F4BD1E763680BF073
:102D1000DF0206925A1C3FD106236360059B61685F
:102D200043F48062002303930AABCDE901B309ABFE
:102D300049EC108B009322600DF123032846FFF726
:102D4000CEFE069B0999472B804608D1C81C02DBA2
:102D50006368994241DDABF102035FFA83FBBBF18B
:102D6000650F20D801395A4604F150000991FFF748
:102D700018FF0A9A1318012A8146236102DC22688F
:102D8000D20701D5013323619DF82330002B9CD05D
:102D90002D2384F8433098E7069A472ABED1002BAA
:102DA000BCD10123B9E7BBF1660F18D100296368D4
:102DB0000BDD216113B92268D00702D501330B4422
:102DC0002361A1654FF00009DEE713B92268D2073D
:102DD00001D50233F4E70123F2E74FF0670B0A9BBA
:102DE000994205DB23682161D807EAD54B1CE7E748
:102DF0000029D4BFC1F1020201221344E0E7236895
:102E00005A0507D42369424631462846B84701305F
:102E10002CD164E7BBF1650F40F2E080D4E91201E8
:102E200000220023FDF770FE002834D0374A01232A
:102E300031462846B84701303FF451AFDDE9092358
:102E40009A4202DB2368D80710D518EE103A524692
:102E500031462846B84701303FF441AF4FF00008F3
:102E600004F11A090A9B013B434509DC23689B07CF
:102E700000F10781E0680B9B9842B8BF184630E725
:102E800001234A4631462846B84701303FF427AF70
:102E900008F10108E6E7099B002B39DC1B4A0123F6
:102EA00031462846B84701303FF419AFDDE9093211
:102EB000134302D12368D907D8D518EE103A5246E9
:102EC00031462846B84701303FF409AF4FF00009BA
:102ED00004F11A0A099B5B424B4501DC0A9B92E70D
:102EE0000123524631462846B84701303FF4F7AE39
:102EF00009F10109EEE700BFFFFFEF7F6757000808
:102F00006B5700086F570008735700087757000881
:102F10000A9AA36D9A42A8BF1A46002A914637DC46
:102F20004FF0000B29EAE97904F11A02A36D059329
:102F3000A3EB09035B4533DCDDE909239A423BDB64
:102F40002368DA0738D4DDE90932A2EB0309059BCF
:102F5000D21A9145A8BF9146B9F1000F35DC4FF068
:102F6000000829EAE97904F11A0ADDE909239B1A24
:102F7000A3EB090343457FF779AF0123524631465E
:102F80002846B84701303FF4AAAE08F10108ECE743
:102F90001346314642462846B8470130C0D19EE626
:102FA0000123314628460592B84701303FF497AED9
:102FB000059A0BF1010BB9E718EE103A524631466B
:102FC0002846B8470130BED189E6059A4B464244AF
:102FD00031462846B8470130C1D180E60A9A012A15
:102FE00001DCDB073AD50123424631462846B84783
:102FF00001303FF474AE18EE103A5246314628467E
:10300000B84701303FF46BAED4E91201002200232F
:10301000DDF828A0FDF778FDD8B90AF1FF3308F1F3
:10302000010231462846B84701300ED157E6012348
:10303000524631462846B84701303FF450AE08F1B9
:1030400001080A9B013B4345F1DC4B4604F1500269
:10305000DAE64FF0000804F11A0AF2E701234246CB
:10306000DFE701234A4631462846B84701303FF49E
:1030700036AE08F10108E3680B995B1A4345F0DCB2
:10308000F8E64FF0000804F11909F4E72DE9F047DC
:10309000164699468A680B69DDF820809342B8BFCE
:1030A0001346336091F8432007460C460AB10133BA
:1030B00033602368990642BF336802333360256862
:1030C00015F0060506D104F1190AE36832689B1A67
:1030D000AB4226DC94F84320131E226818BF01235C
:1030E00092062BD404F1430249463846C0470130CA
:1030F0001ED02368226903F00603042B02BFE56893
:103100003368ED1AA3680CBF25EAE57500259342E4
:10311000C4BF9B1AED1800261A34B5421AD10020FC
:1031200008E00123524649463846C047013003D1E2
:103130004FF0FF30BDE8F0870135C6E7E1185A1CB3
:10314000302081F84300224494F8451082F843105F
:103150000233C7E70123224649463846C0470130BB
:10316000E6D00136D9E700002DE9FF470F7E0C9D20
:10317000782F914680460C469A4601F1430207D8C3
:10318000622F0AD8002F00F0D480582F00F0C080A2
:1031900004F1420584F842703AE0A7F16303152B6D
:1031A000F6D801A151F823F00132000815320008C9
:1031B00091310008913100089131000891310008E7
:1031C0001532000891310008913100089131000852
:1031D000913100081933000841320008D332000849
:1031E00091310008913100083B330008913100080B
:1031F000413200089131000891310008DB320008AB
:103200002B681A1D1B682A6004F1420584F84230BD
:1032100001239FE020682B68070603F10401296061
:1032200001D51E6803E04606FBD5B3F90060002E09
:1032300003DA2D23764284F843305A480A2312E0F9
:103240002B682068191D2960050601D51E6802E05B
:103250004106FBD51E8853486F2F0CBF08230A2355
:10326000002184F843106568A560002DA2BF216885
:1032700021F0040121600EB9002D4BD01546B6FB9C
:10328000F3F103FB1167C75D05F8017D3746BB42CB
:103290000E46F4D9082B0BD12368DE0708D5236925
:1032A00061689942DEBF302305F8013C05F1FF3526
:1032B000521B2261CDF800A04B4603AA214640468E
:1032C000FFF7E4FE01304AD14FF0FF3004B0BDE813
:1032D000F087236843F0200323603348782784F87D
:1032E0004570236829681F0651F8046B02D45F06F5
:1032F00048BFB6B2DF0748BF43F02003296048BF8C
:1033000023601EB9236823F0200323601023A7E75E
:103310002448E4E71546BDE72B6826686169181D57
:10332000286035061B6801D5196002E07006FBD5E0
:103330001980002323611546BCE72B681A1D2A60FB
:103340001D68626800212846FCF762FF08B1401B37
:10335000606063682361002384F84330AAE723692F
:103360002A4649464046D0470130ADD023689B07E6
:1033700013D4E068039B9842B8BF1846A6E7012320
:10338000324649464046D04701309DD00135E3687A
:1033900003995B1AAB42F2DCEBE7002504F1190656
:1033A000F5E700BF795700088A570008002310B5D9
:1033B0000446C0E90033C0E9043383608181436679
:1033C000C2818361194608225C3000F09BFA054BEC
:1033D0006362054BA362054BE362054B24622363E2
:1033E00010BD00BF5537000877370008AF37000819
:1033F000D3370008024A0349034800F069B800BF08
:103400000C000020815300081800002041680C4B7C
:10341000994210B5044601D001F0B2FFA168094BF2
:10342000994202D0204601F0ABFFE168064B994279
:1034300004D02046BDE8104001F0A2BF10BD00BF7F
:10344000A8020020100300207803002010B50B4BC9
:103450000B4C0C4A1A60204600220421FFF7A6FFFD
:1034600004F1680001220921FFF7A0FF04F1D00058
:103470000222BDE810401221FFF798BFE0030020B0
:10348000A8020020F5330008014800F0B7BA00BFD9
:10349000E9030020014800F0B2BA00BFE9030020B0
:1034A00010B50446FFF7F0FF236A1BB1BDE81040DA
:1034B000FFF7F0BF044B2362044B1B68002BF5D1D0
:1034C000FFF7C4FFF2E700BF0D340008E00300205F
:1034D0002DE9F8430746884614460026D4E90195AD
:1034E000B9F1010905D52468002CF7D13046BDE8B3
:1034F000F883AB89012B07D9B5F90E30013303D01E
:1035000029463846C04706436835E9E70FB407B592
:10351000064904AB086853F8042B8168019301F055
:103520008FFD03B05DF804EB04B070476400002029
:10353000036A70B5846805460E460BB9FFF7B0FF05
:10354000636EDB0705D4A389980502D4A06D00F053
:1035500055FAA389190713D523698BB1013EA368D6
:1035600016F8011F013BA360E9B9002B2EDA2246B1
:103570000A21284600F031F9013007D00A2507E07A
:103580002146284600F066F90028E7D04FF0FF35C5
:10359000636EDA0705D4A3899B0502D4A06D00F001
:1035A0002EFA284670BD002B04DAA2699A4206DC86
:1035B0000A2904D023685A1C22601970CFE72246DA
:1035C000284600F00AF90130C9D1DFE723680A254F
:1035D0005A1C22601D70DBE7024B01461868FFF79A
:1035E000A7BF00BF64000020B1FA81F252094FF476
:1035F0008063520000F000B82DE9F7431D46544B9C
:103600001F6804460E46904627B13B6A13B93846F8
:10361000FFF746FFB8F1020F06D0B8F1010F00F234
:103620009480002DC0F29180636EDA0705D4A389DF
:103630009B0502D4A06D00F0E1F92146384601F067
:103640009FFE616B41B104F14403994202D03846B8
:1036500001F050F8002363630023A3616360A38932
:10366000180603D52169384601F044F8A38923F4EC
:103670004A6323F00303B8F1020FA3815FD001ABCB
:103680006A462146384601F0A3FEA3891843A0816B
:103690002DBB009D284601F079F80646002850D140
:1036A000DDF80090A9453ED14FF0FF350022A26021
:1036B00004F14702226022610122B4F90C306261F8
:1036C000626E43F00203D107A38104D49B0502D4A8
:1036D000A06D00F094F9284603B0BDE8F083002EF9
:1036E000D8D03B6A13B93846FFF7DAFEB8F1010FBC
:1036F00008BFA389266004BF43F00103A381A38907
:1037000013F00802C4E904651DD0DA0741BF0022A6
:103710006D42A260A56158BFA560656E15F00105F8
:10372000D4D00025D7E7484601F030F806460028F7
:10373000BAD0A38943F08003A3814D46D1E7002589
:10374000B4E7A946F5E7A260E7E74FF0FF35C2E727
:103750006400002010B50C46B1F90E1000F000F91D
:103760000028ABBF636DA3891B1823F48053ACBF43
:103770006365A38110BD2DE9F0411F468B89DB05F0
:1037800005460C46164605D5B1F90E100223002257
:1037900000F0D4F8A389B4F90E1023F48053A38168
:1037A00032463B462846BDE8F04100F0EBB810B584
:1037B0000C46B1F90E1000F0C1F8431CA38915BFE7
:1037C000606523F4805343F48053A38118BFA38121
:1037D00010BDB1F90E1000F0A1B8F8B50E461446B0
:1037E000054618B1036A0BB9FFF75AFEA369A36037
:1037F000A3891A0725D523691BB323682269981A60
:103800006369F6B28342374604DC2146284601F05C
:10381000B7FDE0B9A368013BA36023685A1C22608E
:103820001E706269431C9A4204D0A389DB0706D547
:103830000A2E04D12146284601F0A2FD38B93846A7
:10384000F8BD2146284600F005F80028D5D04FF0F5
:10385000FF37F4E738B52A4B054618680C4618B10F
:10386000036A0BB9FFF71CFEA389B4F90C201807F3
:1038700022D4D90607D409232B6042F04003A38148
:103880004FF0FF3034E0580712D5616B41B104F1BD
:103890004403994202D0284600F02CFF00236363C2
:1038A000A38923F02403A381002363602369236099
:1038B000A38943F00803A38123694BB9A38903F4C7
:1038C0002073B3F5007F03D02146284601F0A6FD02
:1038D000A089B4F90C2010F001030AD00023A360E2
:1038E00063695B42A361236943B910F08000C4D1CE
:1038F00038BD810758BF6369A360F4E70020F7E78C
:103900006400002002440346934200D1704703F84C
:10391000011BF9E7004870475801002038B5064DF3
:103920000023044608462B60FFF7A4F8431C02D18D
:103930002B6803B1236038BDE403002038B5074D80
:1039400004460846114600222A601A46FFF79CF8F2
:10395000431C02D12B6803B1236038BDE40300206F
:1039600038B5074D04460846114600222A601A461B
:10397000FFF770F8431C02D12B6803B1236038BDF8
:10398000E403002038B5074D0446084611460022DE
:103990002A601A46FDF7C6FA431C02D12B6803B110
:1039A000236038BDE4030020014B1868704700BF56
:1039B0006400002070B50D4D0D4C641BA410002652
:1039C000A64209D10B4D0C4C01F064FE641BA410FF
:1039D0000026A64205D170BD55F8043B9847013634
:1039E000EEE755F8043B98470136F2E7E45A000841
:1039F000E45A0008E45A0008E85A00087047704783
:103A00002DE9F74F03690C69A34207467EDB013CB1
:103A100001F1140800F1140505EB8403019358F833
:103A2000243055F8242001339A424FEA840B08EBE6
:103A30008409B2FBF3F631D34FF0000E4046AC469A
:103A4000F24650F8042B93B206FB03E34FEA124E02
:103A50001A0C9BB2AAEB0303DCF800A013FA8AF35A
:103A600006FB0E220093009B4FEA124E92B2C2EB6D
:103A70001A4202EB2342BDF80030814543EA02437B
:103A80004CF8043B4FEA224ADBD255F80B302BB9F5
:103A9000019B043B9D421A462CD33C61384601F001
:103AA000A5F9002822DB01362946002058F8042B0E
:103AB000D1F800C093B2C31A120C13FA8CF3C2EB04
:103AC0001C4202EB23429BB243EA0243C14541F848
:103AD000043B4FEA2240E9D255F8242005EB840349
:103AE00022B9043B9D421A460AD33C61304603B0DA
:103AF000BDE8F08F1268043B002ACED1013CC9E733
:103B00001268043B002AF0D1013CEBE70020EEE70D
:103B10002DE9F04F2DED048BC56993B08DED020BAF
:103B200057EC106BDDF88080079104460A920D93E4
:103B300075B9102000F02AFE0246E06120B9AE4BB4
:103B4000EF21AE4801F0E6FCC0E901550560C56013
:103B5000E369196851B15A684A60012393408B6048
:103B6000204600F007FFE36900221A603B1EBBBF3E
:103B700023F00043039300230122ACBFC8F80030B8
:103B8000C8F800209E4BDDF80C8033EA08031BD1F7
:103B90000D9A42F20F731360C8F31303334300F01E
:103BA0009385219B63B9974B27E0974B009308338C
:103BB000219A1360009813B0BDEC048BBDE8F08F20
:103BC000904B00930333F3E79DED027B002251EC11
:103BD000170BB0EE478AF0EE678A0023FCF794FFDC
:103BE000814660B10D9A01231360219B002B00F0E8
:103BF0006885864B219A1360013B0093DAE710AA8F
:103C000011A92046B0EE480AF0EE680A01F094F9D6
:103C1000C8F30A558246002D7FD018EE903AC3F3C0
:103C2000130343F07F5351EC180B43F44013A5F2F8
:103C3000FF35CDF8389019460022754BFCF744FB50
:103C400067A3D3E90023FCF7F7FC67A3D3E90023BC
:103C5000FCF73CFB064628460F46FCF783FC64A3B2
:103C6000D3E90023FCF7E8FC02460B463046394610
:103C7000FCF72CFB06460F46FCF78EFF002283461E
:103C8000002330463946FCF749FF48B15846FCF757
:103C900069FC32463B46FCF737FF08B90BF1FF3BA6
:103CA000BBF1160F57D85B4B03EBCB03D3E90023D3
:103CB00051EC180BFCF732FF00284ED00BF1FF3B04
:103CC00000230C93109B5B1B5A1E45BFC3F10103DD
:103CD000059300230023069254BF05930693BBF17E
:103CE000000F3CDB069BCDF82CB05B440693002311
:103CF0000893079B092B68D8052BC4BF043B079387
:103D0000079BA3F10203CCBF00250125032B00F282
:103D10008580DFE803F02E3B3958DDE910531D4460
:103D200005F23243202BC1BFC3F1400308FA03F868
:103D300005F2124326FA03F3D6BFC3F1200348EA83
:103D4000030006FA03F0FCF7FDFB0122A1F1F87372
:103D5000013D0E926FE70123B3E70C90B2E7059B9C
:103D6000A3EB0B030593CBF10003089300230B9304
:103D7000BFE7002309930A9B002B52DC0123019328
:103D800004931A460A920BE00123F3E700230993F8
:103D90000A9B5B4401930133012B0493B8BF0123B9
:103DA000E0690021042202F114069E423DD94160DF
:103DB000204600F09FFD0090002839D1164B0246A6
:103DC00040F2AF11BDE60123E1E70125002307938F
:103DD00009954FF0FF330193049300221223D1E79A
:103DE00061436F63A787D23FB3C8608B288AC63F01
:103DF000FB799F501344D33FA8570008BF570008D2
:103E00000000F07FA45700089B570008785700086F
:103E10000000F83FB0580008175800080123099324
:103E2000D7E70A9B01930493BAE701315200BAE73E
:103E3000E369009A1A60049B0E2B00F2A880002D03
:103E400000F0A580BBF1000F38DDC04B0BF00F0276
:103E500003EBC2031BF4807FD3E900674FEA2B1802
:103E600019D0BB4B51EC180BD3E90823FCF70EFD1E
:103E7000CDE9020108F00F080325DFF8D492B8F16C
:103E8000000F0AD1DDE9020132463B46FCF7FEFC99
:103E9000CDE902012BE00225EFE718F0010F08D071
:103EA00030463946D9E90023FCF7C6FB0135064602
:103EB0000F464FEA680809F10809E0E700F09F8023
:103EC000CBF10006A14BA24F06F00F0203EBC20399
:103ED000D3E9002351EC180BFCF7AEFBCDE902014E
:103EE000361100230225002E7ED1002BD0D10C9B51
:103EF000DDE90289002B00F08480964B00224046C9
:103F00004946FCF70BFE00287BD0049B002B78D0A1
:103F1000019B002B39DD904B002240464946FCF7BF
:103F20008BFBCDE90201019E0BF1FF370135DDE985
:103F300002892846FCF716FB42464B46FCF77CFB01
:103F4000864B0022FCF7C2F9A1F15073CDE90201C2
:103F50000393002E58D1824B002240464946FCF77D
:103F6000B3F9DDE9022380468946FCF7F5FD002818
:103F700040F09682DDE90221404601F100434946C6
:103F8000FCF7CCFD002840F089828DED028B119B5F
:103F9000002BC0F24E81BBF10E0F00F34A816B4B38
:103FA00003EBCB03D3E900890A9B002B80F2DC8072
:103FB000049B002B00F3D88040F06F82684B0022F6
:103FC00040464946FCF738FBDDE90223FCF7BAFD21
:103FD000049E3746002840F04582009D312305F8B5
:103FE000013B0BF1010B41E2F20705D5D7E90023B4
:103FF000FCF722FB013501237610083773E7022511
:1040000075E7049E5F4692E70099504B9DED027B59
:10401000314402910999B0EE479AF0EE679A03EBAA
:10402000C60353E90223002944D04E490020FCF77F
:104030002DFC53EC192BFCF747F9009D41EC190BB3
:1040400049464046FCF7A8FD0646FCF78BFA0246B7
:104050000B4640464946FCF737F9303605F8016B08
:1040600053EC192B80468946FCF758FD002864D193
:1040700042464B4637490020FCF726F953EC192BF2
:10408000FCF74CFD002840F0B680029B9D423FF4B7
:104090007CAF314B51EC190B0022FCF7CDFA2E4BC3
:1040A00041EC190B002240464946FCF7C5FA804610
:1040B0008946C5E751EC170BFCF7BEFA029B009D41
:1040C0000F9341EC190B49464046FCF765FD064647
:1040D000FCF748FA303602460B4640464946FCF7A4
:1040E000F3F805F8016B029B9D42804689464FF02C
:1040F000000224D11B4B51EC190BFCF7E7F80246E8
:104100000B4640464946FCF727FD002873D153EC87
:10411000192B14490020FCF7D7F802460B464046FD
:104120004946FCF7FBFC00283FF42FAF0F9D6B1EA8
:104130000F9315F8013C302BF8D0BB464AE0064BF4
:10414000FCF77AFA80468946BDE700BFB058000800
:10415000885800080000F03F0000244000001C4088
:10416000000014400000E03FDDE90267009D424688
:104170004B4630463946FCF789FBFCF70DFD0190B4
:10418000FCF7F0F942464B46FCF756FA02460B465E
:1041900030463946FCF798F8019E049F303605F802
:1041A000016B009EAE1BB74202460B4634D1FCF7B2
:1041B0008DF842464B4606460F46FCF7CDFCC8B983
:1041C00042464B4630463946FCF79EFC10B1019BF7
:1041D000DB070FD45146204600F0CCFB00230D9A9C
:1041E0002B700BF101031360219B002B3FF4E2AC19
:1041F0001D60DFE45F462B461D4613F8012D392A6A
:1042000006D1009A9A42F7D10099302201370A70FC
:104210001A7801321A7090E7A34B0022FCF70CFACF
:104220000022002306460F46FCF76EFC00289ED0B5
:10423000D0E7099A002A00F0CA80079A012A00F301
:10424000AD800E9A002A00F0A58003F23343089E49
:10425000059D059A1A440592069A01211A442046A2
:10426000069200F03DFC074665B1069B002B09DD78
:10427000AB42059AA8BF2B46D21A0592069AED1AB0
:10428000D31A0693089BF3B1099B002B00F0A3807F
:10429000002E10DD39463246204600F0E1FC524641
:1042A00001460746204600F031FC51468046204634
:1042B00000F060FBC246089B9A1B04D05146204682
:1042C00000F0CEFC82460121204600F009FC0B9B49
:1042D000002B064640F381801A460146204600F036
:1042E000BFFC079B012B06467ADD4FF000083369BF
:1042F00006EB8303186900F0A5FBC0F12000069BC4
:10430000184410F01F0000F09480C0F12003042B2B
:1043100040F38580059BC0F11C0003440593069B78
:10432000034405440693059B002B05DD51461A46C0
:10433000204600F0EFFC8246069B002B05DD31464F
:104340001A46204600F0E6FC06460C9B002B72D075
:104350003146504600F04AFD00286CDA00235146F1
:104360000A22204600F028FB099B0BF1FF3B824606
:10437000002B00F0B081002339460A22204600F0CD
:104380001BFB019B002B074600F39680079B022B2B
:1043900059DC91E0109BC3F1360358E7049B5E1E85
:1043A000089BB342BFBF089B0B9A0896F31AB4BF91
:1043B000D2189E1B049BBCBF0B920026002BB7BFDC
:1043C000DDE90423DDE904359D1A002341E7089E59
:1043D000059D099F48E7089A70E7079B012B19DCA8
:1043E000029BBBB9039BC3F313039BB9039B23F04D
:1043F00000431B0D1B0583B1059B01330593069BF1
:10440000013306934FF001080B9B002B7FF46FAF35
:10441000012074E74FF00008F6E79846F4E782D0F1
:10442000059A1C331A440592069A1A441D440692B2
:1044300079E70346F4E7049B002B37DC079B022B4C
:1044400034DD049B0193019B63B93146052220466C
:1044500000F0B2FA01460646504600F0C7FC0028BC
:104460003FF7BBAD0A9B009D6FEA030B4FF00008BE
:104470003146204600F07EFA002F3FF4ABAEB8F193
:10448000000F05D0B84503D04146204600F072FA2F
:104490003946204600F06EFA9CE600263746E1E7F2
:1044A000BB46374699E500BF00002440099B002B1E
:1044B00000F0C880049B0193002D05DD39462A4693
:1044C000204600F027FC0746B8F1000F5BD0796862
:1044D000204600F00FFA054628B9834B024640F209
:1044E000EF21FFF72EBB3A690232920007F10C016F
:1044F0000C3001F001F801222946204600F00AFCA8
:10450000009B01330493DDE9002313440893029BCD
:1045100003F00103B84606930746049B3146013B6E
:1045200050460193FFF76CFA4146029000F13009C2
:10453000504600F05BFC3A4605903146204600F0BC
:1045400071FCC268054602BB0146504600F04EFCB5
:10455000024629462046099200F00CFA079B099A68
:10456000049D43EA0201069B194310D1B9F1390FAA
:1045700029D0059B002B02DD029B03F13109019B31
:1045800083F8009074E73846BAE70122E1E7059B1B
:10459000002B04DB07990B4306990B4320D1002A1B
:1045A000EDDD51460122204600F0B4FB3146824643
:1045B00000F01CFC002803DCE1D119F0010FDED073
:1045C000B9F1390FD8D1019A392313702B461D4602
:1045D000013B15F8012C392A6CD001321A7047E7DB
:1045E000002A07DDB9F1390FEDD0019A09F1010375
:1045F00013703DE7049B089A03F8019C934243D053
:10460000514600230A22204600F0D6F9B8458246DA
:104610004FF000034FF00A024146204607D100F058
:10462000CBF980460746049B0133049375E700F0FD
:10463000C3F93946804600230A22204600F0BCF91F
:104640000746F0E7049B0193009D31465046FFF773
:10465000D7F900F13009009B05F8019BEA1A019B8C
:10466000934207DD514600230A22204600F0A4F9B8
:104670008246EAE7019B002BC8BF1D46009BD8BFBE
:1046800001251D444FF0000851460122204600F04C
:1046900041FB3146824600F0A9FB002896DC02D19E
:1046A00019F0010F92D12B461D4613F8012D302A27
:1046B000FAD0DDE6009A9A4289D10BF1010B312341
:1046C00096E70A4BFFF799BA219B002B7FF46DAA5E
:1046D000074BFFF792BA019B002BB5DC079B022B1F
:1046E0003FF7B1AEB0E700BF175800087757000892
:1046F0009B57000837B5002944D051F8043C01907D
:10470000002BA1F10404B8BFE41800F0E7F81E4A3A
:104710000198136833B96360146003B0BDE830409A
:1047200000F0E2B8A34208D9256861198B4201BFA5
:1047300019685B6849192160EDE71A465B680BB19F
:10474000A342FAD911685518A5420BD12468214417
:104750005418A3421160E0D11C685B6853600C449C
:104760001460DAE702D90C230360D6E725686119E3
:104770008B4204BF19685B68636004BF49192160FC
:104780005460CAE703B030BDEC030020024B014681
:10479000186800F023B800BF6400002070B50E4E0A
:1047A0000C463168054611B900F096FE306021468E
:1047B000284600F091FE431C0AD0C41C24F00304D8
:1047C000A04207D0211A284600F086FE013001D110
:1047D0004FF0FF34204670BDF00300202DE9F84370
:1047E000CD1C25F0030508350C2D38BF0C25002DF8
:1047F000074601DBA94205D90C233B600026304661
:10480000BDE8F883DFF8D08000F068F8D8F8003011
:104810001C465CBB29463846FFF7C0FF431C0446D4
:1048200055D1D8F800402646002E45D1002C48D05E
:1048300023683146384604EB030900F04DFE8145FC
:104840003FD121686D1A29463846FFF7A7FF01308E
:1048500037D023682B442360D8F80030002B38D0A1
:104860005A68A2422BD100225A600FE02268521BE4
:104870001FD40B2A17D96119A342256018BF5960AC
:10488000636808BFC8F8001062514B60384604F1F5
:104890000B0600F029F826F00706231DF21AAED009
:1048A0009B1BA350ABE7A3426268DDD1C8F8002090
:1048B000ECE723466468ACE734467668B4E7134611
:1048C000CCE70C233B60384600F00EF897E72560F4
:1048D000DCE75B60FFDE00BFEC0300200148FFF770
:1048E0008DB800BFE80300200148FFF788B800BF7B
:1048F000E803002070B5C66904460D4676B910205D
:10490000FFF744FF0246E06120B9184B18486B21BD
:1049100000F000FEC0E901660660C660E669F36863
:1049200083B1E369DB6853F82500B8B9012101FAC6
:1049300005F6721D9200204600F00AFE60B1C0E943
:1049400001560EE021220421204600F001FEE36919
:10495000F060DB68002BE4D1002070BD026843F8F2
:1049600025200023C0E90333F7E700BFA85700085C
:104970002858000870B5C66905460C4676B910205F
:10498000FFF704FF0246E86120B9094B09488F216F
:1049900000F0C0FDC0E901660660C6603CB1EB698D
:1049A0006268DB6853F82210216043F8224070BD32
:1049B000A8570008285800082DE9F0410D6907465E
:1049C0000C461E4601F1140C0020DCF8003099B2B0
:1049D00002FB01611E0C0B0C02FB063389B2013095
:1049E00001EB034185424CF8041B4FEA1346ECDC13
:1049F0000EB3A368AB4219DC616838460131FFF79A
:104A000079FF804628B902460C4B0D48BA2100F0C8
:104A100081FD2269023204F10C0192000C3000F099
:104A20006BFD21463846FFF7A5FF444604EB85039E
:104A300001355E6125612046BDE8F0811758000808
:104A400028580008030C1B04D3B90004102310F0ED
:104A50007F4F04BF0002083310F0704F04BF000105
:104A6000043310F0404F04BF80000233002805DB00
:104A700010F0804F03F1010308BF20231846704750
:104A80000023E4E7036813F007020CD0D90722D40F
:104A90009A0749BF5B089B08036001225CBF036063
:104AA00002221046704799B209B91B0C1022D9B2E4
:104AB00009B908321B0A190704BF1B0904329907F8
:104AC00004BF9B080232D90703D45B0802F101023C
:104AD00003D00360E5E70022E3E72022E1E70000DE
:104AE00010B50C460121FFF705FF024628B9054B1A
:104AF000054840F2451100F00DFD012344610361BA
:104B000010BD00BF17580008285800082DE9F04FC5
:104B100091460A69D9F810309A42B8BF0B460C4644
:104B2000BCBF4C4699462769D9F810A0A3686168B4
:104B300007EB0A06B34285B0B8BF0131FFF7DAFED2
:104B400030B90246444B45484FF4B17100F0E2FCE5
:104B500000F1140505EB86082B460022434521D3BE
:104B600004F1140303EB870709F1140303EB8A0232
:104B700002923A1B153A22F00302043204F11501A5
:104B80008F4238BF04220192029A03939A420CD8B2
:104B9000002E03DD58F8043D002B5BD0066105B004
:104BA000BDE8F08F43F8042BD8E7B3F800A0BAF1C2
:104BB000000F24D004F1140EA9464FF0000C5EF84B
:104BC000042BD9F800101FFA82FB89B20AFB0B11E3
:104BD0004FEA124BD9F8002061444FEA124C0AFB0D
:104BE0000BC202EB114289B241EA0241774549F812
:104BF000041B4FEA124CE2D8019A45F802C0039A0E
:104C0000B2F802900433B9F1000F21D0296804F101
:104C1000140CAE464FF0000ABCF800B0BEF80220FB
:104C200009FB0B22524489B241EA02414EF8041BAF
:104C30005CF8041B4FEA114ABEF8001009FB0A1188
:104C400001EB124167454FEA114AE5D8019AA95094
:104C5000043599E7013E9BE71758000828580008DB
:104C60002DE9F843154612F0030206460F4607D019
:104C7000254C013A002354F82220FFF79DFE0746F9
:104C8000AD103DD0F4697CB91020FFF77FFD0246DE
:104C9000F06128B91D4B1E4840F2B31100F03AFCF8
:104CA000C0E901440460C460D6F81C80D8F808400C
:104CB0004CB940F271213046FFF712FF0023C8F8CB
:104CC0000800044603604FF00009EB070AD5394697
:104CD00022463046FFF71AFF394680463046FFF736
:104CE00049FE47466D100BD0206838B92246214650
:104CF0003046FFF70BFF2060C0F800900446E4E761
:104D00003846BDE8F88300BF78590008A857000866
:104D1000285800082DE9F0470C464968236903EB41
:104D20006218A368074691464FEA621A08F1010625
:104D3000B3420BDB3846FFF7DDFD054648B90246B6
:104D4000284B29484FF4EF7100F0E4FB01315B0080
:104D5000EEE7002300F1140100F11002184653455C
:104D600033DB20692AEAEA7A04F1140319F01F09F7
:104D700001EB8A0103EB800C2BD0C9F1200E8A468F
:104D80000022186800FA09F010434AF8040B53F89F
:104D9000042B9C4522FA0EF2F3D8ACEB0403153B2E
:104DA00023F00303043304F11500844538BF0423C2
:104DB000CA500AB108F10206013E38462E6121466A
:104DC000FFF7D8FD2846BDE8F08742F8040F01330D
:104DD000C5E7043953F8042B41F8042F9C45F9D852
:104DE000EAE700BF175800082858000830B50269E4
:104DF0000C69121B0ED100F11403143103EB840073
:104E000001EB840150F8045D51F8044DA54203D034
:104E100005D30122104630BD8342F3D3FAE74FF0A9
:104E2000FF32F7E72DE9F84F0C46064611462046BB
:104E30009046FFF7DBFF051E10D129463046FFF7ED
:104E400059FD30B93A4B024640F23721394800F05B
:104E500061FB0123C0E90435BDE8F88FA4BF4346D8
:104E6000A0463046D8F80410A6BF1C4600250125F0
:104E7000FFF740FD20B92E4B024640F24521E5E701
:104E8000D8F810702669C56004F1140908F11405FA
:104E900000F1140E05EB870C09EB860608F11002F1
:104EA000F246002159F8043B52F804BF11FA8BF87E
:104EB00099B21B0CA8EB0108C3EB1B4303EB28437F
:104EC0001FFA88F819144E4548EA03434AF8043B90
:104ED000E8D8331B153B23F0030304331534A642F3
:104EE00038BF04231D4473449E462E4666450ED3A8
:104EF0000CF10302521B22F00302033DAC4538BF04
:104F00000022134453F8042D7AB10761A4E756F840
:104F1000048B11FA88F2141404EB184492B242EA9A
:104F200004424EF8042B2114E0E7013FEAE700BFFA
:104F300017580008285800082DE9F7430F460121AB
:104F400059EC108B1646FFF7D5FC044630B90246E3
:104F5000244B254840F20F3100F0DCFAC9F30A5522
:104F6000C9F313032DBB0193B8F1000326D06846A3
:104F70000093FFF787FDDDE90012E8B1C0F12003DF
:104F800002FA03F30B43C24063610192019BA361E8
:104F9000002B14BF022201222261BDB1A5F23345CC
:104FA00005443D60C0F135003060204603B0BDE8E7
:104FB000F08343F48013D6E76161E7E701A8FFF7C8
:104FC00061FD019B636120300122E5E704EB820370
:104FD000A0F2324038601869FFF734FDC0EB421090
:104FE000E2E700BF17580008285800089368013B03
:104FF000002B10B4936008DA9469A34201DB0A29FC
:1050000003D15DF8044BFEF7E8BB1368581C106031
:10501000197008465DF8044B7047F8B506460F4610
:105020001446D518AC4201D1002007E014F8011B4A
:105030003A463046FFF7DAFF431CF3D1F8BD0000D3
:105040002DE9F04F0D469DB014469846064618B11E
:10505000036A0BB9FEF724FA6B6ED90705D4AB8946
:105060009A0502D4A86DFEF7C9FCAB891B0701D5D0
:105070002B699BB929463046FEF7ECFB70B16B6E8D
:10508000DC0704D54FF0FF301DB0BDE8F08FAB89D1
:105090009805F7D4A86DFEF7B2FCF3E70023099357
:1050A00020238DF82930CDF80C803023DFF8B08133
:1050B0008DF82A304FF0010923469A4613F8012B48
:1050C0000AB1252AF9D1BAEB040B0BD05B46224674
:1050D00029463046FFF7A1FF013000F0A980099A68
:1050E0005A4409929AF80030002B00F0A180002366
:1050F0004FF0FF32CDE905230AF1010A049307932B
:105100008DF853301A935446052214F8011B544865
:10511000FBF77EF8049AD8B9D10644BF20238DF856
:105120005330130744BF2B238DF853309AF80030C7
:105130002A2B15D0079A544600204FF00A0C21461E
:1051400011F8013B303B092B4DD9B0B1079214E067
:10515000A0EB080309FA03F313430493A246D2E732
:10516000039B191D1B680391002BBBBF5B4242F0E0
:10517000020207930793B8BF049223782E2B0CD119
:1051800063782A2B34D1039B1A1D1B680392002BD2
:10519000B8BF4FF0FF3302340593DFF8D4A0217875
:1051A00003225046FBF734F838B1049BA0EB0A0009
:1051B0004022824013430134049314F8011B294810
:1051C0008DF828100622FBF723F800283FD0264B45
:1051D0001BBB039B073323F0070308330393099B8F
:1051E0003B44099368E70CFB02320C460120A6E71A
:1051F00000230134059319464FF00A0C204610F89D
:10520000012B303A092A03D9002BC6D00591C4E7F7
:105210000CFB012104460123F0E703AB00932A466F
:10522000124B04A93046FDF7FBFC0746781CD6D18B
:105230006B6ED90705D4AB899A0502D4A86DFEF729
:10524000DEFBAB895B063FF51DAF09981CE703AB9E
:1052500000932A46054B04A93046FDF785FFE4E795
:10526000845900088E590008212C00081B500008A2
:105270008A5900088A892DE9F041054610070C4635
:1052800058D44B68002B05DC0B6C002B02DC002093
:10529000BDE8F081E66A002EF9D0002312F48052B6
:1052A0002F68216A2B6032D0606DA3895A0705D51B
:1052B0006368C01A636B0BB1236CC01A00230246EB
:1052C000E66A216A2846B047431CA38906D12968AB
:1052D0001D292BD8294A0A41D60727D4002262600B
:1052E000D9042269226004D5421C01D12B6803B97C
:1052F0006065616B2F600029C9D004F144039942B5
:1053000002D02846FFF7F6F900206063C0E70123CA
:105310002846B047411CC8D12B68002BC5D01D2B97
:1053200001D0162B01D12F60B1E7A38943F04003D0
:10533000A381ADE70F69002FA9D093070E6808BFBE
:105340004B690F6018BF0023A6EB07088B60B8F10C
:10535000000F9CDD216AA66A43463A462846B047BC
:10536000002806DCA38943F04003A3814FF0FF30FF
:105370008EE70744A8EB0008E9E700BFFEFFBFDFA8
:1053800038B50B6905460C4613B90025284638BDCB
:1053900018B1036A0BB9FEF783F8B4F90C30002B8F
:1053A000F3D0626ED00704D4990502D4A06DFEF745
:1053B00025FB28462146FFF75DFF636EDA070546A9
:1053C000E4D4A3899B05E1D4A06DFEF718FBDDE7CB
:1053D00070B50C46B1F90E10002996B015461E4660
:1053E0000DDAA38913F0800F4FF000010CBF4FF4CA
:1053F00080634023002031602B6016B070BD6A4688
:1054000000F048F80028ECDB019901F47041A1F5A7
:105410000053594259414FF48063EBE78B8973B5D0
:105420009D0706460C4607D504F147032360236118
:105430000123636102B070BD01AB6A46FFF7C8FF8C
:10544000009905463046FFF7C9F948B9B4F90C3060
:105450009A05EFD423F0030343F00203A381E3E7AB
:10546000A389206043F08003A381009B6361019BBB
:1054700020615BB1B4F90E10304600F01DF828B180
:10548000A38923F0030343F00103A381A3891D43F0
:10549000A581CFE738B5074D0023044608461146DD
:1054A0002B60FDF7EAFA431C02D12B6803B123609D
:1054B00038BD00BFE403002038B5064D0023044684
:1054C00008462B60FDF7DEFA431C02D12B6803B1BE
:1054D000236038BDE403002038B5064D00230446A0
:1054E00008462B6000F0C8F8431C02D12B6803B1BA
:1054F000236038BDE40300200A44914200F1FF33E9
:1055000000D1704710B511F8014B03F8014F9142DB
:10551000F9D110BD1FB514461A46094B1B68054644
:10552000D8684CB1074B0091CDE9013406492B46B0
:1055300000F044F800F054F8044B1C46F3E700BFB9
:10554000640000209F590008AC590008DA5900088F
:1055500037B5A1FB02244CB911460192FFF73EF981
:10556000019A054630B9284603B030BD0C220260CE
:105570000025F8E72146FEF7C5F9F4E782B001B946
:1055800001A942B14BB113780B601278101E18BFFD
:10559000012002B070471046FBE76FF00100F8E70A
:1055A00049B1FF2A85BF8A2303600A704FF0FF309C
:1055B00098BF012070470846704700000EB403B53D
:1055C000014603AB054853F8042B00680193FFF72D
:1055D00037FD02B05DF804EB03B0704764000020B3
:1055E00008B5062000F02CF80120FDF72DFA1F2940
:1055F00038B504460D4604D9162303604FF0FF303A
:1056000038BDC26B12B152F821304BB9204600F0C0
:1056100031F82A4601462046BDE8384000F018B867
:10562000012B0AD0591C03D1162303600120E7E7A0
:10563000002442F82540284698470020E0E7000073
:10564000024B01461868FFF7D2BF00BF640000207C
:1056500038B5074D00230446084611462B60FDF778
:10566000EBF9431C02D12B6803B1236038BD00BFA6
:10567000E4030020FDF7DEB9044A1168034609B9C6
:10568000034911601068034413607047F40300205D
:10569000F8030020F8B500BFF8BC08BC9E46704770
:0C56A000F8B500BFF8BC08BC9E4670477F
:1056B00048656C6C6F20576F726C640000000000CE
:1056C00000000000010203040607080900000000B2
:1056D00001020304206964203D20256C64205B30B6
:1056E0005D203D202578205B315D203D2025782000
:1056F0005B325D203D202578205B335D203D2025F9
:1057000078205B345D203D202578205B355D203D91
:10571000202578205B365D203D202578205B375D95
:10572000203D2025780D0A00416374697661746913
:105730006F6E204F4B2000006572726F7220636F96
:1057400064653A202564000043414E205374617221
:1057500074204F4B000000006572726F7220636FFF
:1057600064653A20257800494E4600696E66004E11
:10577000414E006E616E00300030313233343536C8
:1057800037383941424344454600303132333435AD
:105790003637383961626364656600496E66696EE2
:1057A000697479004E614E005245454E54206D613A
:1057B0006C6C6F6320737563636565646564002F4B
:1057C0006275696C642F676E752D746F6F6C732DC5
:1057D000666F722D73746D33325F31312E332E72DA
:1057E000656C312E32303233303531392D31393428
:1057F000312F7372632F6E65776C69622F6E6577D8
:105800006C69622F6C6962632F7374646C69622FB8
:1058100064746F612E630042616C6C6F63207375FA
:1058200063636565646564002F6275696C642F67E6
:105830006E752D746F6F6C732D666F722D73746D32
:1058400033325F31312E332E72656C312E3230326D
:1058500033303531392D313934312F7372632F6E36
:1058600065776C69622F6E65776C69622F6C69620F
:10587000632F7374646C69622F6D707265632E633D
:1058800000000000000000000080E03779C34143C1
:10589000176E05B5B5B89346F5F93FE9034F384D96
:1058A000321D30F94877825A3CBF737FDD4F157542
:1058B000000000000000F03F000000000000244055
:1058C00000000000000059400000000000408F4030
:1058D000000000000088C34000000000006AF8409B
:1058E0000000000080842E4100000000D0126341BF
:1058F0000000000084D797410000000065CDCD4135
:10590000000000205FA00242000000E87648374215
:10591000000000A2941A6D42000040E59C30A242B3
:105920000000901EC4BCD64200003426F56B0C4328
:105930000080E03779C3414300A0D88557347643CF
:1059400000C84E676DC1AB43003D9160E458E14330
:10595000408CB5781DAF154450EFE2D6E41A4B44A5
:1059600092D54D06CFF08044F64AE1C7022DB544EA
:10597000B49DD9794378EA4405000000190000007D
:105980007D000000232D302B2000686C4C006566E4
:1059900067454647004300504F534958002E002C9E
:1059A0002066756E6374696F6E3A2000617373656B
:1059B0007274696F6E2022257322206661696C659E
:1059C000643A2066696C6520222573222C206C695C
:1059D0006E65202564257325730A00002020202091
:1059E000202020202028282828282020202020208F
:1059F000202020202020202020202020881010106F
:105A000010101010101010101010101004040404C6
:105A1000040404040404101010101010104141413B
:105A200041414101010101010101010101010101A6
:105A30000101010101010110101010101042424239
:105A40004242420202020202020202020202020276
:105A500002020202020202101010102000000000D8
:105A60000000000000000000000000000000000036
:105A70000000000000000000000000000000000026
:105A80000000000000000000000000000000000016
:105A90000000000000000000000000000000000006
:105AA00000000000000000000000000000000000F6
:105AB00000000000000000000000000000000000E6
:105AC00000000000000000000000000000000000D6
:0C5AD000000000000000000000000000CA
:085ADC007CB1FF7F0100000016
:045AE400F5010008C0
